{"abi":[{"type":"constructor","inputs":[{"name":"baseUri","type":"string","internalType":"string"}],"stateMutability":"nonpayable"},{"type":"function","name":"balanceOf","inputs":[{"name":"account","type":"address","internalType":"address"},{"name":"id","type":"uint256","internalType":"uint256"}],"outputs":[{"name":"","type":"uint256","internalType":"uint256"}],"stateMutability":"view"},{"type":"function","name":"balanceOfBatch","inputs":[{"name":"accounts","type":"address[]","internalType":"address[]"},{"name":"ids","type":"uint256[]","internalType":"uint256[]"}],"outputs":[{"name":"","type":"uint256[]","internalType":"uint256[]"}],"stateMutability":"view"},{"type":"function","name":"isApprovedForAll","inputs":[{"name":"account","type":"address","internalType":"address"},{"name":"operator","type":"address","internalType":"address"}],"outputs":[{"name":"","type":"bool","internalType":"bool"}],"stateMutability":"view"},{"type":"function","name":"mintPlot","inputs":[{"name":"to","type":"address","internalType":"address"},{"name":"uri","type":"string","internalType":"string"}],"outputs":[{"name":"","type":"uint256","internalType":"uint256"}],"stateMutability":"nonpayable"},{"type":"function","name":"nextPlotId","inputs":[],"outputs":[{"name":"","type":"uint256","internalType":"uint256"}],"stateMutability":"view"},{"type":"function","name":"owner","inputs":[],"outputs":[{"name":"","type":"address","internalType":"address"}],"stateMutability":"view"},{"type":"function","name":"plots","inputs":[{"name":"","type":"uint256","internalType":"uint256"}],"outputs":[{"name":"uri","type":"string","internalType":"string"},{"name":"owner","type":"address","internalType":"address"}],"stateMutability":"view"},{"type":"function","name":"renounceOwnership","inputs":[],"outputs":[],"stateMutability":"nonpayable"},{"type":"function","name":"safeBatchTransferFrom","inputs":[{"name":"from","type":"address","internalType":"address"},{"name":"to","type":"address","internalType":"address"},{"name":"ids","type":"uint256[]","internalType":"uint256[]"},{"name":"values","type":"uint256[]","internalType":"uint256[]"},{"name":"data","type":"bytes","internalType":"bytes"}],"outputs":[],"stateMutability":"nonpayable"},{"type":"function","name":"safeTransferFrom","inputs":[{"name":"from","type":"address","internalType":"address"},{"name":"to","type":"address","internalType":"address"},{"name":"id","type":"uint256","internalType":"uint256"},{"name":"value","type":"uint256","internalType":"uint256"},{"name":"data","type":"bytes","internalType":"bytes"}],"outputs":[],"stateMutability":"nonpayable"},{"type":"function","name":"setApprovalForAll","inputs":[{"name":"operator","type":"address","internalType":"address"},{"name":"approved","type":"bool","internalType":"bool"}],"outputs":[],"stateMutability":"nonpayable"},{"type":"function","name":"supportsInterface","inputs":[{"name":"interfaceId","type":"bytes4","internalType":"bytes4"}],"outputs":[{"name":"","type":"bool","internalType":"bool"}],"stateMutability":"view"},{"type":"function","name":"transferOwnership","inputs":[{"name":"newOwner","type":"address","internalType":"address"}],"outputs":[],"stateMutability":"nonpayable"},{"type":"function","name":"transferPlot","inputs":[{"name":"from","type":"address","internalType":"address"},{"name":"to","type":"address","internalType":"address"},{"name":"plotId","type":"uint256","internalType":"uint256"}],"outputs":[],"stateMutability":"nonpayable"},{"type":"function","name":"uri","inputs":[{"name":"","type":"uint256","internalType":"uint256"}],"outputs":[{"name":"","type":"string","internalType":"string"}],"stateMutability":"view"},{"type":"event","name":"ApprovalForAll","inputs":[{"name":"account","type":"address","indexed":true,"internalType":"address"},{"name":"operator","type":"address","indexed":true,"internalType":"address"},{"name":"approved","type":"bool","indexed":false,"internalType":"bool"}],"anonymous":false},{"type":"event","name":"OwnershipTransferred","inputs":[{"name":"previousOwner","type":"address","indexed":true,"internalType":"address"},{"name":"newOwner","type":"address","indexed":true,"internalType":"address"}],"anonymous":false},{"type":"event","name":"PlotMinted","inputs":[{"name":"plotId","type":"uint256","indexed":true,"internalType":"uint256"},{"name":"to","type":"address","indexed":true,"internalType":"address"},{"name":"uri","type":"string","indexed":false,"internalType":"string"}],"anonymous":false},{"type":"event","name":"TransferBatch","inputs":[{"name":"operator","type":"address","indexed":true,"internalType":"address"},{"name":"from","type":"address","indexed":true,"internalType":"address"},{"name":"to","type":"address","indexed":true,"internalType":"address"},{"name":"ids","type":"uint256[]","indexed":false,"internalType":"uint256[]"},{"name":"values","type":"uint256[]","indexed":false,"internalType":"uint256[]"}],"anonymous":false},{"type":"event","name":"TransferSingle","inputs":[{"name":"operator","type":"address","indexed":true,"internalType":"address"},{"name":"from","type":"address","indexed":true,"internalType":"address"},{"name":"to","type":"address","indexed":true,"internalType":"address"},{"name":"id","type":"uint256","indexed":false,"internalType":"uint256"},{"name":"value","type":"uint256","indexed":false,"internalType":"uint256"}],"anonymous":false},{"type":"event","name":"URI","inputs":[{"name":"value","type":"string","indexed":false,"internalType":"string"},{"name":"id","type":"uint256","indexed":true,"internalType":"uint256"}],"anonymous":false},{"type":"error","name":"ERC1155InsufficientBalance","inputs":[{"name":"sender","type":"address","internalType":"address"},{"name":"balance","type":"uint256","internalType":"uint256"},{"name":"needed","type":"uint256","internalType":"uint256"},{"name":"tokenId","type":"uint256","internalType":"uint256"}]},{"type":"error","name":"ERC1155InvalidApprover","inputs":[{"name":"approver","type":"address","internalType":"address"}]},{"type":"error","name":"ERC1155InvalidArrayLength","inputs":[{"name":"idsLength","type":"uint256","internalType":"uint256"},{"name":"valuesLength","type":"uint256","internalType":"uint256"}]},{"type":"error","name":"ERC1155InvalidOperator","inputs":[{"name":"operator","type":"address","internalType":"address"}]},{"type":"error","name":"ERC1155InvalidReceiver","inputs":[{"name":"receiver","type":"address","internalType":"address"}]},{"type":"error","name":"ERC1155InvalidSender","inputs":[{"name":"sender","type":"address","internalType":"address"}]},{"type":"error","name":"ERC1155MissingApprovalForAll","inputs":[{"name":"operator","type":"address","internalType":"address"},{"name":"owner","type":"address","internalType":"address"}]},{"type":"error","name":"OwnableInvalidOwner","inputs":[{"name":"owner","type":"address","internalType":"address"}]},{"type":"error","name":"OwnableUnauthorizedAccount","inputs":[{"name":"account","type":"address","internalType":"address"}]}],"bytecode":{"object":"0x60806040526001600455348015610014575f5ffd5b50604051613008380380613008833981810160405281019061003691906102f1565b3381610047816100ce60201b60201c565b505f73ffffffffffffffffffffffffffffffffffffffff168173ffffffffffffffffffffffffffffffffffffffff16036100b8575f6040517f1e4fbdf70000000000000000000000000000000000000000000000000000000081526004016100af9190610377565b60405180910390fd5b6100c7816100e160201b60201c565b505061066f565b80600290816100dd91906105a0565b5050565b5f60035f9054906101000a900473ffffffffffffffffffffffffffffffffffffffff1690508160035f6101000a81548173ffffffffffffffffffffffffffffffffffffffff021916908373ffffffffffffffffffffffffffffffffffffffff1602179055508173ffffffffffffffffffffffffffffffffffffffff168173ffffffffffffffffffffffffffffffffffffffff167f8be0079c531659141344cd1fd0a4f28419497f9722a3daafe3b4186f6b6457e060405160405180910390a35050565b5f604051905090565b5f5ffd5b5f5ffd5b5f5ffd5b5f5ffd5b5f601f19601f8301169050919050565b7f4e487b71000000000000000000000000000000000000000000000000000000005f52604160045260245ffd5b610203826101bd565b810181811067ffffffffffffffff82111715610222576102216101cd565b5b80604052505050565b5f6102346101a4565b905061024082826101fa565b919050565b5f67ffffffffffffffff82111561025f5761025e6101cd565b5b610268826101bd565b9050602081019050919050565b8281835e5f83830152505050565b5f61029561029084610245565b61022b565b9050828152602081018484840111156102b1576102b06101b9565b5b6102bc848285610275565b509392505050565b5f82601f8301126102d8576102d76101b5565b5b81516102e8848260208601610283565b91505092915050565b5f60208284031215610306576103056101ad565b5b5f82015167ffffffffffffffff811115610323576103226101b1565b5b61032f848285016102c4565b91505092915050565b5f73ffffffffffffffffffffffffffffffffffffffff82169050919050565b5f61036182610338565b9050919050565b61037181610357565b82525050565b5f60208201905061038a5f830184610368565b92915050565b5f81519050919050565b7f4e487b71000000000000000000000000000000000000000000000000000000005f52602260045260245ffd5b5f60028204905060018216806103de57607f821691505b6020821081036103f1576103f061039a565b5b50919050565b5f819050815f5260205f209050919050565b5f6020601f8301049050919050565b5f82821b905092915050565b5f600883026104537fffffffffffffffffffffffffffffffffffffffffffffffffffffffffffffffff82610418565b61045d8683610418565b95508019841693508086168417925050509392505050565b5f819050919050565b5f819050919050565b5f6104a161049c61049784610475565b61047e565b610475565b9050919050565b5f819050919050565b6104ba83610487565b6104ce6104c6826104a8565b848454610424565b825550505050565b5f5f905090565b6104e56104d6565b6104f08184846104b1565b505050565b5b81811015610513576105085f826104dd565b6001810190506104f6565b5050565b601f82111561055857610529816103f7565b61053284610409565b81016020851015610541578190505b61055561054d85610409565b8301826104f5565b50505b505050565b5f82821c905092915050565b5f6105785f198460080261055d565b1980831691505092915050565b5f6105908383610569565b9150826002028217905092915050565b6105a982610390565b67ffffffffffffffff8111156105c2576105c16101cd565b5b6105cc82546103c7565b6105d7828285610517565b5f60209050601f831160018114610608575f84156105f6578287015190505b6106008582610585565b865550610667565b601f198416610616866103f7565b5f5b8281101561063d57848901518255600182019150602085019450602081019050610618565b8683101561065a5784890151610656601f891682610569565b8355505b6001600288020188555050505b505050505050565b61298c8061067c5f395ff3fe608060405234801561000f575f5ffd5b50600436106100f2575f3560e01c8063715018a611610095578063d981856c11610064578063d981856c14610281578063e985e9c5146102b1578063f242432a146102e1578063f2fde38b146102fd576100f2565b8063715018a61461021f5780638da5cb5b14610229578063a22cb46514610247578063cf529c1614610263576100f2565b80632eb2c2d6116100d15780632eb2c2d6146101865780632ed54add146101a25780634e1273f4146101be57806361bf49ee146101ee576100f2565b8062fdd58e146100f657806301ffc9a7146101265780630e89341c14610156575b5f5ffd5b610110600480360381019061010b919061199b565b610319565b60405161011d91906119e8565b60405180910390f35b610140600480360381019061013b9190611a56565b61036e565b60405161014d9190611a9b565b60405180910390f35b610170600480360381019061016b9190611ab4565b61044f565b60405161017d9190611b4f565b60405180910390f35b6101a0600480360381019061019b9190611d5f565b6104e1565b005b6101bc60048036038101906101b79190611e2a565b610588565b005b6101d860048036038101906101d39190611f3a565b610646565b6040516101e59190612067565b60405180910390f35b61020860048036038101906102039190611ab4565b610750565b604051610216929190612096565b60405180910390f35b610227610815565b005b610231610828565b60405161023e91906120c4565b60405180910390f35b610261600480360381019061025c9190612107565b610850565b005b61026b610866565b60405161027891906119e8565b60405180910390f35b61029b600480360381019061029691906121e3565b61086c565b6040516102a891906119e8565b60405180910390f35b6102cb60048036038101906102c6919061223d565b61099f565b6040516102d89190611a9b565b60405180910390f35b6102fb60048036038101906102f6919061227b565b610a2d565b005b6103176004803603810190610312919061230e565b610ad4565b005b5f5f5f8381526020019081526020015f205f8473ffffffffffffffffffffffffffffffffffffffff1673ffffffffffffffffffffffffffffffffffffffff1681526020019081526020015f2054905092915050565b5f7fd9b67a26000000000000000000000000000000000000000000000000000000007bffffffffffffffffffffffffffffffffffffffffffffffffffffffff1916827bffffffffffffffffffffffffffffffffffffffffffffffffffffffff1916148061043857507f0e89341c000000000000000000000000000000000000000000000000000000007bffffffffffffffffffffffffffffffffffffffffffffffffffffffff1916827bffffffffffffffffffffffffffffffffffffffffffffffffffffffff1916145b80610448575061044782610b58565b5b9050919050565b60606002805461045e90612366565b80601f016020809104026020016040519081016040528092919081815260200182805461048a90612366565b80156104d55780601f106104ac576101008083540402835291602001916104d5565b820191905f5260205f20905b8154815290600101906020018083116104b857829003601f168201915b50505050509050919050565b5f6104ea610bc1565b90508073ffffffffffffffffffffffffffffffffffffffff168673ffffffffffffffffffffffffffffffffffffffff161415801561052f575061052d868261099f565b155b156105735780866040517fe237d92200000000000000000000000000000000000000000000000000000000815260040161056a929190612396565b60405180910390fd5b6105808686868686610bc8565b505050505050565b5f6105938483610319565b116105d3576040517f08c379a00000000000000000000000000000000000000000000000000000000081526004016105ca90612407565b60405180910390fd5b6105ef838383600160405180602001604052805f815250610a2d565b8160055f8381526020019081526020015f206001015f6101000a81548173ffffffffffffffffffffffffffffffffffffffff021916908373ffffffffffffffffffffffffffffffffffffffff160217905550505050565b6060815183511461069257815183516040517f5b059991000000000000000000000000000000000000000000000000000000008152600401610689929190612425565b60405180910390fd5b5f835167ffffffffffffffff8111156106ae576106ad611b73565b5b6040519080825280602002602001820160405280156106dc5781602001602082028036833780820191505090505b5090505f5f90505b84518110156107455761071b6107038287610cbc90919063ffffffff16565b6107168387610ccf90919063ffffffff16565b610319565b82828151811061072e5761072d61244c565b5b6020026020010181815250508060010190506106e4565b508091505092915050565b6005602052805f5260405f205f91509050805f01805461076f90612366565b80601f016020809104026020016040519081016040528092919081815260200182805461079b90612366565b80156107e65780601f106107bd576101008083540402835291602001916107e6565b820191905f5260205f20905b8154815290600101906020018083116107c957829003601f168201915b505050505090806001015f9054906101000a900473ffffffffffffffffffffffffffffffffffffffff16905082565b61081d610ce2565b6108265f610d69565b565b5f60035f9054906101000a900473ffffffffffffffffffffffffffffffffffffffff16905090565b61086261085b610bc1565b8383610e2c565b5050565b60045481565b5f610875610ce2565b5f60045490506108968482600160405180602001604052805f815250610f95565b60405180604001604052808481526020018573ffffffffffffffffffffffffffffffffffffffff1681525060055f8381526020019081526020015f205f820151815f0190816108e59190612619565b506020820151816001015f6101000a81548173ffffffffffffffffffffffffffffffffffffffff021916908373ffffffffffffffffffffffffffffffffffffffff1602179055509050508373ffffffffffffffffffffffffffffffffffffffff16817fb50f791dd9c45a3b026c432b0fcf12bf5e6f24ed3753615d004b126637430fac856040516109769190611b4f565b60405180910390a360045f81548092919061099090612715565b91905055508091505092915050565b5f60015f8473ffffffffffffffffffffffffffffffffffffffff1673ffffffffffffffffffffffffffffffffffffffff1681526020019081526020015f205f8373ffffffffffffffffffffffffffffffffffffffff1673ffffffffffffffffffffffffffffffffffffffff1681526020019081526020015f205f9054906101000a900460ff16905092915050565b5f610a36610bc1565b90508073ffffffffffffffffffffffffffffffffffffffff168673ffffffffffffffffffffffffffffffffffffffff1614158015610a7b5750610a79868261099f565b155b15610abf5780866040517fe237d922000000000000000000000000000000000000000000000000000000008152600401610ab6929190612396565b60405180910390fd5b610acc868686868661102a565b505050505050565b610adc610ce2565b5f73ffffffffffffffffffffffffffffffffffffffff168173ffffffffffffffffffffffffffffffffffffffff1603610b4c575f6040517f1e4fbdf7000000000000000000000000000000000000000000000000000000008152600401610b4391906120c4565b60405180910390fd5b610b5581610d69565b50565b5f7f01ffc9a7000000000000000000000000000000000000000000000000000000007bffffffffffffffffffffffffffffffffffffffffffffffffffffffff1916827bffffffffffffffffffffffffffffffffffffffffffffffffffffffff1916149050919050565b5f33905090565b5f73ffffffffffffffffffffffffffffffffffffffff168473ffffffffffffffffffffffffffffffffffffffff1603610c38575f6040517f57f447ce000000000000000000000000000000000000000000000000000000008152600401610c2f91906120c4565b60405180910390fd5b5f73ffffffffffffffffffffffffffffffffffffffff168573ffffffffffffffffffffffffffffffffffffffff1603610ca8575f6040517f01a83514000000000000000000000000000000000000000000000000000000008152600401610c9f91906120c4565b60405180910390fd5b610cb58585858585611130565b5050505050565b5f60208202602084010151905092915050565b5f60208202602084010151905092915050565b610cea610bc1565b73ffffffffffffffffffffffffffffffffffffffff16610d08610828565b73ffffffffffffffffffffffffffffffffffffffff1614610d6757610d2b610bc1565b6040517f118cdaa7000000000000000000000000000000000000000000000000000000008152600401610d5e91906120c4565b60405180910390fd5b565b5f60035f9054906101000a900473ffffffffffffffffffffffffffffffffffffffff1690508160035f6101000a81548173ffffffffffffffffffffffffffffffffffffffff021916908373ffffffffffffffffffffffffffffffffffffffff1602179055508173ffffffffffffffffffffffffffffffffffffffff168173ffffffffffffffffffffffffffffffffffffffff167f8be0079c531659141344cd1fd0a4f28419497f9722a3daafe3b4186f6b6457e060405160405180910390a35050565b5f73ffffffffffffffffffffffffffffffffffffffff168273ffffffffffffffffffffffffffffffffffffffff1603610e9c575f6040517fced3e100000000000000000000000000000000000000000000000000000000008152600401610e9391906120c4565b60405180910390fd5b8060015f8573ffffffffffffffffffffffffffffffffffffffff1673ffffffffffffffffffffffffffffffffffffffff1681526020019081526020015f205f8473ffffffffffffffffffffffffffffffffffffffff1673ffffffffffffffffffffffffffffffffffffffff1681526020019081526020015f205f6101000a81548160ff0219169083151502179055508173ffffffffffffffffffffffffffffffffffffffff168373ffffffffffffffffffffffffffffffffffffffff167f17307eab39ab6107e8899845ad3d59bd9653f200f220920489ca2b5937696c3183604051610f889190611a9b565b60405180910390a3505050565b5f73ffffffffffffffffffffffffffffffffffffffff168473ffffffffffffffffffffffffffffffffffffffff1603611005575f6040517f57f447ce000000000000000000000000000000000000000000000000000000008152600401610ffc91906120c4565b60405180910390fd5b5f5f61101185856111dc565b915091506110225f87848487611130565b505050505050565b5f73ffffffffffffffffffffffffffffffffffffffff168473ffffffffffffffffffffffffffffffffffffffff160361109a575f6040517f57f447ce00000000000000000000000000000000000000000000000000000000815260040161109191906120c4565b60405180910390fd5b5f73ffffffffffffffffffffffffffffffffffffffff168573ffffffffffffffffffffffffffffffffffffffff160361110a575f6040517f01a8351400000000000000000000000000000000000000000000000000000000815260040161110191906120c4565b60405180910390fd5b5f5f61111685856111dc565b915091506111278787848487611130565b50505050505050565b61113c8585858561120c565b5f73ffffffffffffffffffffffffffffffffffffffff168473ffffffffffffffffffffffffffffffffffffffff16146111d5575f611178610bc1565b905060018451036111c4575f6111975f86610ccf90919063ffffffff16565b90505f6111ad5f86610ccf90919063ffffffff16565b90506111bd83898985858961159f565b50506111d3565b6111d281878787878761174e565b5b505b5050505050565b60608060405191506001825283602083015260408201905060018152826020820152604081016040529250929050565b805182511461125657815181516040517f5b05999100000000000000000000000000000000000000000000000000000000815260040161124d929190612425565b60405180910390fd5b5f61125f610bc1565b90505f5f90505b835181101561145e575f6112838286610ccf90919063ffffffff16565b90505f6112998386610ccf90919063ffffffff16565b90505f73ffffffffffffffffffffffffffffffffffffffff168873ffffffffffffffffffffffffffffffffffffffff16146113bc575f5f5f8481526020019081526020015f205f8a73ffffffffffffffffffffffffffffffffffffffff1673ffffffffffffffffffffffffffffffffffffffff1681526020019081526020015f205490508181101561136857888183856040517f03dee4c500000000000000000000000000000000000000000000000000000000815260040161135f949392919061275c565b60405180910390fd5b8181035f5f8581526020019081526020015f205f8b73ffffffffffffffffffffffffffffffffffffffff1673ffffffffffffffffffffffffffffffffffffffff1681526020019081526020015f2081905550505b5f73ffffffffffffffffffffffffffffffffffffffff168773ffffffffffffffffffffffffffffffffffffffff161461145157805f5f8481526020019081526020015f205f8973ffffffffffffffffffffffffffffffffffffffff1673ffffffffffffffffffffffffffffffffffffffff1681526020019081526020015f205f828254611449919061279f565b925050819055505b5050806001019050611266565b506001835103611519575f61147c5f85610ccf90919063ffffffff16565b90505f6114925f85610ccf90919063ffffffff16565b90508573ffffffffffffffffffffffffffffffffffffffff168773ffffffffffffffffffffffffffffffffffffffff168473ffffffffffffffffffffffffffffffffffffffff167fc3d58168c5ae7397731d063d5bbf3d657854427343f4c083240f7aacaa2d0f62858560405161150a929190612425565b60405180910390a45050611598565b8373ffffffffffffffffffffffffffffffffffffffff168573ffffffffffffffffffffffffffffffffffffffff168273ffffffffffffffffffffffffffffffffffffffff167f4a39dc06d4c0dbc64b70af90fd698a233a518aa5d07e595d983b8c0526c8f7fb868660405161158f9291906127d2565b60405180910390a45b5050505050565b5f8473ffffffffffffffffffffffffffffffffffffffff163b1115611746578373ffffffffffffffffffffffffffffffffffffffff1663f23a6e6187878686866040518663ffffffff1660e01b81526004016115ff959493929190612859565b6020604051808303815f875af192505050801561163a57506040513d601f19601f8201168201806040525081019061163791906128c5565b60015b6116bb573d805f8114611668576040519150601f19603f3d011682016040523d82523d5f602084013e61166d565b606091505b505f8151036116b357846040517f57f447ce0000000000000000000000000000000000000000000000000000000081526004016116aa91906120c4565b60405180910390fd5b805160208201fd5b63f23a6e6160e01b7bffffffffffffffffffffffffffffffffffffffffffffffffffffffff1916817bffffffffffffffffffffffffffffffffffffffffffffffffffffffff19161461174457846040517f57f447ce00000000000000000000000000000000000000000000000000000000815260040161173b91906120c4565b60405180910390fd5b505b505050505050565b5f8473ffffffffffffffffffffffffffffffffffffffff163b11156118f5578373ffffffffffffffffffffffffffffffffffffffff1663bc197c8187878686866040518663ffffffff1660e01b81526004016117ae9594939291906128f0565b6020604051808303815f875af19250505080156117e957506040513d601f19601f820116820180604052508101906117e691906128c5565b60015b61186a573d805f8114611817576040519150601f19603f3d011682016040523d82523d5f602084013e61181c565b606091505b505f81510361186257846040517f57f447ce00000000000000000000000000000000000000000000000000000000815260040161185991906120c4565b60405180910390fd5b805160208201fd5b63bc197c8160e01b7bffffffffffffffffffffffffffffffffffffffffffffffffffffffff1916817bffffffffffffffffffffffffffffffffffffffffffffffffffffffff1916146118f357846040517f57f447ce0000000000000000000000000000000000000000000000000000000081526004016118ea91906120c4565b60405180910390fd5b505b505050505050565b5f604051905090565b5f5ffd5b5f5ffd5b5f73ffffffffffffffffffffffffffffffffffffffff82169050919050565b5f6119378261190e565b9050919050565b6119478161192d565b8114611951575f5ffd5b50565b5f813590506119628161193e565b92915050565b5f819050919050565b61197a81611968565b8114611984575f5ffd5b50565b5f8135905061199581611971565b92915050565b5f5f604083850312156119b1576119b0611906565b5b5f6119be85828601611954565b92505060206119cf85828601611987565b9150509250929050565b6119e281611968565b82525050565b5f6020820190506119fb5f8301846119d9565b92915050565b5f7fffffffff0000000000000000000000000000000000000000000000000000000082169050919050565b611a3581611a01565b8114611a3f575f5ffd5b50565b5f81359050611a5081611a2c565b92915050565b5f60208284031215611a6b57611a6a611906565b5b5f611a7884828501611a42565b91505092915050565b5f8115159050919050565b611a9581611a81565b82525050565b5f602082019050611aae5f830184611a8c565b92915050565b5f60208284031215611ac957611ac8611906565b5b5f611ad684828501611987565b91505092915050565b5f81519050919050565b5f82825260208201905092915050565b8281835e5f83830152505050565b5f601f19601f8301169050919050565b5f611b2182611adf565b611b2b8185611ae9565b9350611b3b818560208601611af9565b611b4481611b07565b840191505092915050565b5f6020820190508181035f830152611b678184611b17565b905092915050565b5f5ffd5b7f4e487b71000000000000000000000000000000000000000000000000000000005f52604160045260245ffd5b611ba982611b07565b810181811067ffffffffffffffff82111715611bc857611bc7611b73565b5b80604052505050565b5f611bda6118fd565b9050611be68282611ba0565b919050565b5f67ffffffffffffffff821115611c0557611c04611b73565b5b602082029050602081019050919050565b5f5ffd5b5f611c2c611c2784611beb565b611bd1565b90508083825260208201905060208402830185811115611c4f57611c4e611c16565b5b835b81811015611c785780611c648882611987565b845260208401935050602081019050611c51565b5050509392505050565b5f82601f830112611c9657611c95611b6f565b5b8135611ca6848260208601611c1a565b91505092915050565b5f5ffd5b5f67ffffffffffffffff821115611ccd57611ccc611b73565b5b611cd682611b07565b9050602081019050919050565b828183375f83830152505050565b5f611d03611cfe84611cb3565b611bd1565b905082815260208101848484011115611d1f57611d1e611caf565b5b611d2a848285611ce3565b509392505050565b5f82601f830112611d4657611d45611b6f565b5b8135611d56848260208601611cf1565b91505092915050565b5f5f5f5f5f60a08688031215611d7857611d77611906565b5b5f611d8588828901611954565b9550506020611d9688828901611954565b945050604086013567ffffffffffffffff811115611db757611db661190a565b5b611dc388828901611c82565b935050606086013567ffffffffffffffff811115611de457611de361190a565b5b611df088828901611c82565b925050608086013567ffffffffffffffff811115611e1157611e1061190a565b5b611e1d88828901611d32565b9150509295509295909350565b5f5f5f60608486031215611e4157611e40611906565b5b5f611e4e86828701611954565b9350506020611e5f86828701611954565b9250506040611e7086828701611987565b9150509250925092565b5f67ffffffffffffffff821115611e9457611e93611b73565b5b602082029050602081019050919050565b5f611eb7611eb284611e7a565b611bd1565b90508083825260208201905060208402830185811115611eda57611ed9611c16565b5b835b81811015611f035780611eef8882611954565b845260208401935050602081019050611edc565b5050509392505050565b5f82601f830112611f2157611f20611b6f565b5b8135611f31848260208601611ea5565b91505092915050565b5f5f60408385031215611f5057611f4f611906565b5b5f83013567ffffffffffffffff811115611f6d57611f6c61190a565b5b611f7985828601611f0d565b925050602083013567ffffffffffffffff811115611f9a57611f9961190a565b5b611fa685828601611c82565b9150509250929050565b5f81519050919050565b5f82825260208201905092915050565b5f819050602082019050919050565b611fe281611968565b82525050565b5f611ff38383611fd9565b60208301905092915050565b5f602082019050919050565b5f61201582611fb0565b61201f8185611fba565b935061202a83611fca565b805f5b8381101561205a5781516120418882611fe8565b975061204c83611fff565b92505060018101905061202d565b5085935050505092915050565b5f6020820190508181035f83015261207f818461200b565b905092915050565b6120908161192d565b82525050565b5f6040820190508181035f8301526120ae8185611b17565b90506120bd6020830184612087565b9392505050565b5f6020820190506120d75f830184612087565b92915050565b6120e681611a81565b81146120f0575f5ffd5b50565b5f81359050612101816120dd565b92915050565b5f5f6040838503121561211d5761211c611906565b5b5f61212a85828601611954565b925050602061213b858286016120f3565b9150509250929050565b5f67ffffffffffffffff82111561215f5761215e611b73565b5b61216882611b07565b9050602081019050919050565b5f61218761218284612145565b611bd1565b9050828152602081018484840111156121a3576121a2611caf565b5b6121ae848285611ce3565b509392505050565b5f82601f8301126121ca576121c9611b6f565b5b81356121da848260208601612175565b91505092915050565b5f5f604083850312156121f9576121f8611906565b5b5f61220685828601611954565b925050602083013567ffffffffffffffff8111156122275761222661190a565b5b612233858286016121b6565b9150509250929050565b5f5f6040838503121561225357612252611906565b5b5f61226085828601611954565b925050602061227185828601611954565b9150509250929050565b5f5f5f5f5f60a0868803121561229457612293611906565b5b5f6122a188828901611954565b95505060206122b288828901611954565b94505060406122c388828901611987565b93505060606122d488828901611987565b925050608086013567ffffffffffffffff8111156122f5576122f461190a565b5b61230188828901611d32565b9150509295509295909350565b5f6020828403121561232357612322611906565b5b5f61233084828501611954565b91505092915050565b7f4e487b71000000000000000000000000000000000000000000000000000000005f52602260045260245ffd5b5f600282049050600182168061237d57607f821691505b6020821081036123905761238f612339565b5b50919050565b5f6040820190506123a95f830185612087565b6123b66020830184612087565b9392505050565b7f53656e646572206e6f74206f776e6572000000000000000000000000000000005f82015250565b5f6123f1601083611ae9565b91506123fc826123bd565b602082019050919050565b5f6020820190508181035f83015261241e816123e5565b9050919050565b5f6040820190506124385f8301856119d9565b61244560208301846119d9565b9392505050565b7f4e487b71000000000000000000000000000000000000000000000000000000005f52603260045260245ffd5b5f819050815f5260205f209050919050565b5f6020601f8301049050919050565b5f82821b905092915050565b5f600883026124d57fffffffffffffffffffffffffffffffffffffffffffffffffffffffffffffffff8261249a565b6124df868361249a565b95508019841693508086168417925050509392505050565b5f819050919050565b5f61251a61251561251084611968565b6124f7565b611968565b9050919050565b5f819050919050565b61253383612500565b61254761253f82612521565b8484546124a6565b825550505050565b5f5f905090565b61255e61254f565b61256981848461252a565b505050565b5b8181101561258c576125815f82612556565b60018101905061256f565b5050565b601f8211156125d1576125a281612479565b6125ab8461248b565b810160208510156125ba578190505b6125ce6125c68561248b565b83018261256e565b50505b505050565b5f82821c905092915050565b5f6125f15f19846008026125d6565b1980831691505092915050565b5f61260983836125e2565b9150826002028217905092915050565b61262282611adf565b67ffffffffffffffff81111561263b5761263a611b73565b5b6126458254612366565b612650828285612590565b5f60209050601f831160018114612681575f841561266f578287015190505b61267985826125fe565b8655506126e0565b601f19841661268f86612479565b5f5b828110156126b657848901518255600182019150602085019450602081019050612691565b868310156126d357848901516126cf601f8916826125e2565b8355505b6001600288020188555050505b505050505050565b7f4e487b71000000000000000000000000000000000000000000000000000000005f52601160045260245ffd5b5f61271f82611968565b91507fffffffffffffffffffffffffffffffffffffffffffffffffffffffffffffffff8203612751576127506126e8565b5b600182019050919050565b5f60808201905061276f5f830187612087565b61277c60208301866119d9565b61278960408301856119d9565b61279660608301846119d9565b95945050505050565b5f6127a982611968565b91506127b483611968565b92508282019050808211156127cc576127cb6126e8565b5b92915050565b5f6040820190508181035f8301526127ea818561200b565b905081810360208301526127fe818461200b565b90509392505050565b5f81519050919050565b5f82825260208201905092915050565b5f61282b82612807565b6128358185612811565b9350612845818560208601611af9565b61284e81611b07565b840191505092915050565b5f60a08201905061286c5f830188612087565b6128796020830187612087565b61288660408301866119d9565b61289360608301856119d9565b81810360808301526128a58184612821565b90509695505050505050565b5f815190506128bf81611a2c565b92915050565b5f602082840312156128da576128d9611906565b5b5f6128e7848285016128b1565b91505092915050565b5f60a0820190506129035f830188612087565b6129106020830187612087565b8181036040830152612922818661200b565b90508181036060830152612936818561200b565b9050818103608083015261294a8184612821565b9050969550505050505056fea2646970667358221220aa16dc0ee466402bece4640b9cd3ad89a234d4e929c21006f447d815c63088d164736f6c634300081e0033","linkReferences":{}},"methodIdentifiers":{"balanceOf(address,uint256)":"00fdd58e","balanceOfBatch(address[],uint256[])":"4e1273f4","isApprovedForAll(address,address)":"e985e9c5","mintPlot(address,string)":"d981856c","nextPlotId()":"cf529c16","owner()":"8da5cb5b","plots(uint256)":"61bf49ee","renounceOwnership()":"715018a6","safeBatchTransferFrom(address,address,uint256[],uint256[],bytes)":"2eb2c2d6","safeTransferFrom(address,address,uint256,uint256,bytes)":"f242432a","setApprovalForAll(address,bool)":"a22cb465","supportsInterface(bytes4)":"01ffc9a7","transferOwnership(address)":"f2fde38b","transferPlot(address,address,uint256)":"2ed54add","uri(uint256)":"0e89341c"},"id":0}